{
  "_format": "hh-sol-artifact-1",
  "contractName": "SimpleERC1155",
  "sourceName": "contracts/SimpleERC1155.sol",
  "abi": [
    {
      "inputs": [
        {
          "internalType": "string",
          "name": "_uri",
          "type": "string"
        }
      ],
      "stateMutability": "nonpayable",
      "type": "constructor"
    },
    {
      "anonymous": false,
      "inputs": [
        {
          "indexed": true,
          "internalType": "address",
          "name": "operator",
          "type": "address"
        },
        {
          "indexed": true,
          "internalType": "address",
          "name": "from",
          "type": "address"
        },
        {
          "indexed": true,
          "internalType": "address",
          "name": "to",
          "type": "address"
        },
        {
          "indexed": false,
          "internalType": "uint256",
          "name": "id",
          "type": "uint256"
        },
        {
          "indexed": false,
          "internalType": "uint256",
          "name": "value",
          "type": "uint256"
        }
      ],
      "name": "TransferSingle",
      "type": "event"
    },
    {
      "inputs": [
        {
          "internalType": "uint256",
          "name": "",
          "type": "uint256"
        },
        {
          "internalType": "address",
          "name": "",
          "type": "address"
        }
      ],
      "name": "balanceOf",
      "outputs": [
        {
          "internalType": "uint256",
          "name": "",
          "type": "uint256"
        }
      ],
      "stateMutability": "view",
      "type": "function"
    },
    {
      "inputs": [
        {
          "internalType": "address[]",
          "name": "accounts",
          "type": "address[]"
        },
        {
          "internalType": "uint256[]",
          "name": "ids",
          "type": "uint256[]"
        }
      ],
      "name": "balanceOfBatch",
      "outputs": [
        {
          "internalType": "uint256[]",
          "name": "",
          "type": "uint256[]"
        }
      ],
      "stateMutability": "view",
      "type": "function"
    },
    {
      "inputs": [
        {
          "internalType": "address",
          "name": "to",
          "type": "address"
        },
        {
          "internalType": "uint256",
          "name": "id",
          "type": "uint256"
        },
        {
          "internalType": "uint256",
          "name": "amount",
          "type": "uint256"
        },
        {
          "internalType": "bytes",
          "name": "",
          "type": "bytes"
        }
      ],
      "name": "mint",
      "outputs": [],
      "stateMutability": "nonpayable",
      "type": "function"
    },
    {
      "inputs": [
        {
          "internalType": "address",
          "name": "from",
          "type": "address"
        },
        {
          "internalType": "address",
          "name": "to",
          "type": "address"
        },
        {
          "internalType": "uint256",
          "name": "id",
          "type": "uint256"
        },
        {
          "internalType": "uint256",
          "name": "amount",
          "type": "uint256"
        },
        {
          "internalType": "bytes",
          "name": "",
          "type": "bytes"
        }
      ],
      "name": "safeTransferFrom",
      "outputs": [],
      "stateMutability": "nonpayable",
      "type": "function"
    },
    {
      "inputs": [],
      "name": "uri",
      "outputs": [
        {
          "internalType": "string",
          "name": "",
          "type": "string"
        }
      ],
      "stateMutability": "view",
      "type": "function"
    }
  ],
  "bytecode": "0x60806040523480156200001157600080fd5b50604051620013ae380380620013ae8339818101604052810190620000379190620001e3565b80600090816200004891906200047f565b505062000566565b6000604051905090565b600080fd5b600080fd5b600080fd5b600080fd5b6000601f19601f8301169050919050565b7f4e487b7100000000000000000000000000000000000000000000000000000000600052604160045260246000fd5b620000b9826200006e565b810181811067ffffffffffffffff82111715620000db57620000da6200007f565b5b80604052505050565b6000620000f062000050565b9050620000fe8282620000ae565b919050565b600067ffffffffffffffff8211156200012157620001206200007f565b5b6200012c826200006e565b9050602081019050919050565b60005b83811015620001595780820151818401526020810190506200013c565b60008484015250505050565b60006200017c620001768462000103565b620000e4565b9050828152602081018484840111156200019b576200019a62000069565b5b620001a884828562000139565b509392505050565b600082601f830112620001c857620001c762000064565b5b8151620001da84826020860162000165565b91505092915050565b600060208284031215620001fc57620001fb6200005a565b5b600082015167ffffffffffffffff8111156200021d576200021c6200005f565b5b6200022b84828501620001b0565b91505092915050565b600081519050919050565b7f4e487b7100000000000000000000000000000000000000000000000000000000600052602260045260246000fd5b600060028204905060018216806200028757607f821691505b6020821081036200029d576200029c6200023f565b5b50919050565b60008190508160005260206000209050919050565b60006020601f8301049050919050565b600082821b905092915050565b600060088302620003077fffffffffffffffffffffffffffffffffffffffffffffffffffffffffffffffff82620002c8565b620003138683620002c8565b95508019841693508086168417925050509392505050565b6000819050919050565b6000819050919050565b6000620003606200035a62000354846200032b565b62000335565b6200032b565b9050919050565b6000819050919050565b6200037c836200033f565b620003946200038b8262000367565b848454620002d5565b825550505050565b600090565b620003ab6200039c565b620003b881848462000371565b505050565b5b81811015620003e057620003d4600082620003a1565b600181019050620003be565b5050565b601f8211156200042f57620003f981620002a3565b6200040484620002b8565b8101602085101562000414578190505b6200042c6200042385620002b8565b830182620003bd565b50505b505050565b600082821c905092915050565b6000620004546000198460080262000434565b1980831691505092915050565b60006200046f838362000441565b9150826002028217905092915050565b6200048a8262000234565b67ffffffffffffffff811115620004a657620004a56200007f565b5b620004b282546200026e565b620004bf828285620003e4565b600060209050601f831160018114620004f75760008415620004e2578287015190505b620004ee858262000461565b8655506200055e565b601f1984166200050786620002a3565b60005b8281101562000531578489015182556001820191506020850194506020810190506200050a565b868310156200055157848901516200054d601f89168262000441565b8355505b6001600288020188555050505b505050505050565b610e3880620005766000396000f3fe608060405234801561001057600080fd5b50600436106100575760003560e01c80633656eec21461005c5780634e1273f41461008c578063731133e9146100bc578063eac989f8146100d8578063f242432a146100f6575b600080fd5b610076600480360381019061007191906106cf565b610112565b604051610083919061071e565b60405180910390f35b6100a660048036038101906100a191906107f4565b610137565b6040516100b39190610933565b60405180910390f35b6100d660048036038101906100d191906109ab565b610261565b005b6100e061034e565b6040516100ed9190610ac3565b60405180910390f35b610110600480360381019061010b9190610ae5565b6103dc565b005b6001602052816000526040600020602052806000526040600020600091509150505481565b606060008585905067ffffffffffffffff81111561015857610157610b7f565b5b6040519080825280602002602001820160405280156101865781602001602082028036833780820191505090505b50905060005b8686905081101561025457600160008686848181106101ae576101ad610bae565b5b90506020020135815260200190815260200160002060008888848181106101d8576101d7610bae565b5b90506020020160208101906101ed9190610bdd565b73ffffffffffffffffffffffffffffffffffffffff1673ffffffffffffffffffffffffffffffffffffffff1681526020019081526020016000205482828151811061023b5761023a610bae565b5b602002602001018181525050808060010191505061018c565b5080915050949350505050565b826001600086815260200190815260200160002060008773ffffffffffffffffffffffffffffffffffffffff1673ffffffffffffffffffffffffffffffffffffffff16815260200190815260200160002060008282546102c19190610c39565b925050819055508473ffffffffffffffffffffffffffffffffffffffff16600073ffffffffffffffffffffffffffffffffffffffff163373ffffffffffffffffffffffffffffffffffffffff167fc3d58168c5ae7397731d063d5bbf3d657854427343f4c083240f7aacaa2d0f62878760405161033f929190610c6d565b60405180910390a45050505050565b6000805461035b90610cc5565b80601f016020809104026020016040519081016040528092919081815260200182805461038790610cc5565b80156103d45780601f106103a9576101008083540402835291602001916103d4565b820191906000526020600020905b8154815290600101906020018083116103b757829003601f168201915b505050505081565b8573ffffffffffffffffffffffffffffffffffffffff163373ffffffffffffffffffffffffffffffffffffffff161461044a576040517f08c379a000000000000000000000000000000000000000000000000000000000815260040161044190610d42565b60405180910390fd5b826001600086815260200190815260200160002060008873ffffffffffffffffffffffffffffffffffffffff1673ffffffffffffffffffffffffffffffffffffffff1681526020019081526020016000205410156104dd576040517f08c379a00000000000000000000000000000000000000000000000000000000081526004016104d490610dae565b60405180910390fd5b826001600086815260200190815260200160002060008873ffffffffffffffffffffffffffffffffffffffff1673ffffffffffffffffffffffffffffffffffffffff168152602001908152602001600020600082825461053d9190610dce565b92505081905550826001600086815260200190815260200160002060008773ffffffffffffffffffffffffffffffffffffffff1673ffffffffffffffffffffffffffffffffffffffff16815260200190815260200160002060008282546105a49190610c39565b925050819055508473ffffffffffffffffffffffffffffffffffffffff168673ffffffffffffffffffffffffffffffffffffffff163373ffffffffffffffffffffffffffffffffffffffff167fc3d58168c5ae7397731d063d5bbf3d657854427343f4c083240f7aacaa2d0f628787604051610621929190610c6d565b60405180910390a4505050505050565b600080fd5b600080fd5b6000819050919050565b61064e8161063b565b811461065957600080fd5b50565b60008135905061066b81610645565b92915050565b600073ffffffffffffffffffffffffffffffffffffffff82169050919050565b600061069c82610671565b9050919050565b6106ac81610691565b81146106b757600080fd5b50565b6000813590506106c9816106a3565b92915050565b600080604083850312156106e6576106e5610631565b5b60006106f48582860161065c565b9250506020610705858286016106ba565b9150509250929050565b6107188161063b565b82525050565b6000602082019050610733600083018461070f565b92915050565b600080fd5b600080fd5b600080fd5b60008083601f84011261075e5761075d610739565b5b8235905067ffffffffffffffff81111561077b5761077a61073e565b5b60208301915083602082028301111561079757610796610743565b5b9250929050565b60008083601f8401126107b4576107b3610739565b5b8235905067ffffffffffffffff8111156107d1576107d061073e565b5b6020830191508360208202830111156107ed576107ec610743565b5b9250929050565b6000806000806040858703121561080e5761080d610631565b5b600085013567ffffffffffffffff81111561082c5761082b610636565b5b61083887828801610748565b9450945050602085013567ffffffffffffffff81111561085b5761085a610636565b5b6108678782880161079e565b925092505092959194509250565b600081519050919050565b600082825260208201905092915050565b6000819050602082019050919050565b6108aa8161063b565b82525050565b60006108bc83836108a1565b60208301905092915050565b6000602082019050919050565b60006108e082610875565b6108ea8185610880565b93506108f583610891565b8060005b8381101561092657815161090d88826108b0565b9750610918836108c8565b9250506001810190506108f9565b5085935050505092915050565b6000602082019050818103600083015261094d81846108d5565b905092915050565b60008083601f84011261096b5761096a610739565b5b8235905067ffffffffffffffff8111156109885761098761073e565b5b6020830191508360018202830111156109a4576109a3610743565b5b9250929050565b6000806000806000608086880312156109c7576109c6610631565b5b60006109d5888289016106ba565b95505060206109e68882890161065c565b94505060406109f78882890161065c565b935050606086013567ffffffffffffffff811115610a1857610a17610636565b5b610a2488828901610955565b92509250509295509295909350565b600081519050919050565b600082825260208201905092915050565b60005b83811015610a6d578082015181840152602081019050610a52565b60008484015250505050565b6000601f19601f8301169050919050565b6000610a9582610a33565b610a9f8185610a3e565b9350610aaf818560208601610a4f565b610ab881610a79565b840191505092915050565b60006020820190508181036000830152610add8184610a8a565b905092915050565b60008060008060008060a08789031215610b0257610b01610631565b5b6000610b1089828a016106ba565b9650506020610b2189828a016106ba565b9550506040610b3289828a0161065c565b9450506060610b4389828a0161065c565b935050608087013567ffffffffffffffff811115610b6457610b63610636565b5b610b7089828a01610955565b92509250509295509295509295565b7f4e487b7100000000000000000000000000000000000000000000000000000000600052604160045260246000fd5b7f4e487b7100000000000000000000000000000000000000000000000000000000600052603260045260246000fd5b600060208284031215610bf357610bf2610631565b5b6000610c01848285016106ba565b91505092915050565b7f4e487b7100000000000000000000000000000000000000000000000000000000600052601160045260246000fd5b6000610c448261063b565b9150610c4f8361063b565b9250828201905080821115610c6757610c66610c0a565b5b92915050565b6000604082019050610c82600083018561070f565b610c8f602083018461070f565b9392505050565b7f4e487b7100000000000000000000000000000000000000000000000000000000600052602260045260246000fd5b60006002820490506001821680610cdd57607f821691505b602082108103610cf057610cef610c96565b5b50919050565b7f6e6f74206f776e65720000000000000000000000000000000000000000000000600082015250565b6000610d2c600983610a3e565b9150610d3782610cf6565b602082019050919050565b60006020820190508181036000830152610d5b81610d1f565b9050919050565b7f696e73756666696369656e740000000000000000000000000000000000000000600082015250565b6000610d98600c83610a3e565b9150610da382610d62565b602082019050919050565b60006020820190508181036000830152610dc781610d8b565b9050919050565b6000610dd98261063b565b9150610de48361063b565b9250828203905081811115610dfc57610dfb610c0a565b5b9291505056fea2646970667358221220cd4283697101a3a981af1377470e92da68d8c057130c1365515ae984000e6b7964736f6c63430008180033",
  "linkReferences": {},
  "deployedLinkReferences": {}
}