{
  "_format": "hh-sol-artifact-1",
  "contractName": "SimpleEntryPoint",
  "sourceName": "contracts/SimpleEntryPoint.sol",
  "abi": [
    {
      "anonymous": false,
      "inputs": [
        {
          "indexed": true,
          "internalType": "bytes32",
          "name": "userOpHash",
          "type": "bytes32"
        },
        {
          "indexed": true,
          "internalType": "address",
          "name": "sender",
          "type": "address"
        },
        {
          "indexed": true,
          "internalType": "address",
          "name": "paymaster",
          "type": "address"
        },
        {
          "indexed": false,
          "internalType": "uint256",
          "name": "nonce",
          "type": "uint256"
        },
        {
          "indexed": false,
          "internalType": "bool",
          "name": "success",
          "type": "bool"
        }
      ],
      "name": "UserOperationEvent",
      "type": "event"
    },
    {
      "inputs": [
        {
          "components": [
            {
              "internalType": "address",
              "name": "sender",
              "type": "address"
            },
            {
              "internalType": "uint256",
              "name": "nonce",
              "type": "uint256"
            },
            {
              "internalType": "bytes",
              "name": "callData",
              "type": "bytes"
            }
          ],
          "internalType": "struct UserOperation[]",
          "name": "ops",
          "type": "tuple[]"
        },
        {
          "internalType": "address payable",
          "name": "beneficiary",
          "type": "address"
        }
      ],
      "name": "handleOps",
      "outputs": [],
      "stateMutability": "nonpayable",
      "type": "function"
    },
    {
      "inputs": [
        {
          "internalType": "address",
          "name": "",
          "type": "address"
        }
      ],
      "name": "nonces",
      "outputs": [
        {
          "internalType": "uint256",
          "name": "",
          "type": "uint256"
        }
      ],
      "stateMutability": "view",
      "type": "function"
    }
  ],
  "bytecode": "0x608060405234801561001057600080fd5b5061090a806100206000396000f3fe608060405234801561001057600080fd5b50600436106100365760003560e01c806306968ef21461003b5780637ecebe0014610057575b600080fd5b610055600480360381019061005091906104e2565b610087565b005b610071600480360381019061006c9190610580565b6103fd565b60405161007e91906105c6565b60405180910390f35b60005b8383905081101561034157368484838181106100a9576100a86105e1565b5b90506020028101906100bb919061061f565b905060008160000160208101906100d29190610580565b82602001358380604001906100e79190610647565b6040516100f59291906106e9565b604051809103902060405160200161010f9392919061072a565b60405160208183030381529060405280519060200120905081602001356000808460000160208101906101429190610580565b73ffffffffffffffffffffffffffffffffffffffff1673ffffffffffffffffffffffffffffffffffffffff16815260200190815260200160002054146101bd576040517f08c379a00000000000000000000000000000000000000000000000000000000081526004016101b4906107be565b60405180910390fd5b6000808360000160208101906101d39190610580565b73ffffffffffffffffffffffffffffffffffffffff1673ffffffffffffffffffffffffffffffffffffffff168152602001908152602001600020600081548092919061021e9061080d565b919050555060008260000160208101906102389190610580565b73ffffffffffffffffffffffffffffffffffffffff1683806040019061025e9190610647565b60405161026c9291906106e9565b6000604051808303816000865af19150503d80600081146102a9576040519150601f19603f3d011682016040523d82523d6000602084013e6102ae565b606091505b50509050600073ffffffffffffffffffffffffffffffffffffffff168360000160208101906102dd9190610580565b73ffffffffffffffffffffffffffffffffffffffff16837f0d392abb98af482d0f01b9a2ddf444f7bc3132d8e3e5f5701c4145f30cd2045c866020013585604051610329929190610870565b60405180910390a4505050808060010191505061008a565b50600073ffffffffffffffffffffffffffffffffffffffff168173ffffffffffffffffffffffffffffffffffffffff16146103f85760008173ffffffffffffffffffffffffffffffffffffffff16600060405161039d906108bf565b60006040518083038185875af1925050503d80600081146103da576040519150601f19603f3d011682016040523d82523d6000602084013e6103df565b606091505b5050905080806103ed575060015b6103f657600080fd5b505b505050565b60006020528060005260406000206000915090505481565b600080fd5b600080fd5b600080fd5b600080fd5b600080fd5b60008083601f8401126104445761044361041f565b5b8235905067ffffffffffffffff81111561046157610460610424565b5b60208301915083602082028301111561047d5761047c610429565b5b9250929050565b600073ffffffffffffffffffffffffffffffffffffffff82169050919050565b60006104af82610484565b9050919050565b6104bf816104a4565b81146104ca57600080fd5b50565b6000813590506104dc816104b6565b92915050565b6000806000604084860312156104fb576104fa610415565b5b600084013567ffffffffffffffff8111156105195761051861041a565b5b6105258682870161042e565b93509350506020610538868287016104cd565b9150509250925092565b600061054d82610484565b9050919050565b61055d81610542565b811461056857600080fd5b50565b60008135905061057a81610554565b92915050565b60006020828403121561059657610595610415565b5b60006105a48482850161056b565b91505092915050565b6000819050919050565b6105c0816105ad565b82525050565b60006020820190506105db60008301846105b7565b92915050565b7f4e487b7100000000000000000000000000000000000000000000000000000000600052603260045260246000fd5b600080fd5b600080fd5b600080fd5b60008235600160600383360303811261063b5761063a610610565b5b80830191505092915050565b6000808335600160200384360303811261066457610663610610565b5b80840192508235915067ffffffffffffffff82111561068657610685610615565b5b6020830192506001820236038313156106a2576106a161061a565b5b509250929050565b600081905092915050565b82818337600083830152505050565b60006106d083856106aa565b93506106dd8385846106b5565b82840190509392505050565b60006106f68284866106c4565b91508190509392505050565b61070b81610542565b82525050565b6000819050919050565b61072481610711565b82525050565b600060608201905061073f6000830186610702565b61074c60208301856105b7565b610759604083018461071b565b949350505050565b600082825260208201905092915050565b7f696e76616c6964206e6f6e636500000000000000000000000000000000000000600082015250565b60006107a8600d83610761565b91506107b382610772565b602082019050919050565b600060208201905081810360008301526107d78161079b565b9050919050565b7f4e487b7100000000000000000000000000000000000000000000000000000000600052601160045260246000fd5b6000610818826105ad565b91507fffffffffffffffffffffffffffffffffffffffffffffffffffffffffffffffff820361084a576108496107de565b5b600182019050919050565b60008115159050919050565b61086a81610855565b82525050565b600060408201905061088560008301856105b7565b6108926020830184610861565b9392505050565b50565b60006108a96000836106aa565b91506108b482610899565b600082019050919050565b60006108ca8261089c565b915081905091905056fea2646970667358221220c113ee48e486060c541566c008ee964e5d05f2be40189413313b514aa9715b0264736f6c63430008180033",
  "linkReferences": {},
  "deployedLinkReferences": {}
}